:020000040000FA
:02000000BF2817
:040002000034003492
:080008003B002D1C1A282D10ED
:10001000FD1F0F28043023020318152813289730DA
:100020002302031C1528FD09FD0A7D08A307AF174D
:1000300020009312701821283B003D1C2128BD018F
:1000400070142000131309008A018207E934EE348A
:100050007734E134DF34D434D534C8349F34BD34FC
:10006000FA34B234EA34A8346F349F34743496349A
:100070000B348E340F34863491347E3474347734B8
:10008000BB34703466346A3472346434CF345E34D2
:100090007D34593475345434B7344F343E344B3492
:1000A000053447340734433445343F34B7343B34A4
:1000B0005D343834353435343734323465342F34A4
:1000C000BC342C343A342A34DB3427349F3425347E
:1000D0008234233484342134A2341F34DC341D347C
:1000E0002F341C3499341A341B341934B334173474
:1000F0005E3416341C341534ED341334CF341234DA
:10010000C0341134C1341034D1340F348A01820721
:10011000DA292B2E152ADD2B582DAB2D972E642E88
:10012000B92C4C2BA32B812C2D2DE02DEF2CE42A68
:10013000082E212B442C892FD22E852AF628013017
:10014000FD00220060309D003B00A101A201A7013B
:10015000A801AE149B30A500A6014D30A300A40158
:10016000AF172D102C14AB172B172D00141494144B
:1001700091019201E03093002100931608002100C4
:100180007030990023008C012600FF308C00220083
:100190000C110C1021008C0122008C109F203B00C0
:1001A0000D3087009130860008308101860AFF3EBD
:1001B000031DD5289F170D308700B1308600083009
:1001C0008101860AFF3E031DE028BF1720309E00F4
:1001D000C0309B00BB001230BE00BD013C142100AA
:1001E00013172000C0308B00831DF728F401F101A4
:1001F000F501F00174088620FB00F10A74088620DE
:10020000FC00F10A74088620F600FF3A03193A2927
:100210007608F039F03A03192629F03AE03A031942
:100220002A29E03AC03A03192E29C03AD03A0319D4
:100230003429D03A0F3076050F3A031D2329760E64
:100240000F394D21012976085821012903307605FF
:10025000F300012903307605F5000129F10AF10ABE
:1002600074088620F2000129701D01297208F1002E
:1002700070110129F40A3E216300BF2820008B136E
:100280003B00AB132B132C102D102D0093121313C6
:1002900022008C120C120C1408006D213B00BD01D1
:1002A000C030BB007010701C53293B00BB1308000A
:1002B000F8000F39C121780E0F396D213B00C03095
:1002C0009B003B00BD01C030BB007010701C662954
:1002D0003B009B133B00BB130800F6003B007B0870
:1002E000F9007C08FA000310760CF7007708031970
:1002F0007E290310FA0CF90CF7037629761C89295C
:1003000003107A0CF700790CF9070318F70A77083D
:10031000FA077908B5007A08B600023075060319A5
:10032000A729013075060319A3290310FA0CF90C4B
:100330000310FA0C790C3502F900031CFA0A7A084A
:100340003602FA00B9290310FA0CF90CB929033066
:10035000F60076080319B1290310FA0CF90CF6031C
:10036000A92979083502F900031CFA0A7A0836022D
:10037000FA007908B3007A08B400B901BA01BF17CE
:100380000800F60073080319CA29F7000C30F607B5
:10039000F70BC7293B000310F60D760824209500C3
:1003A000760A242096000310160C9400150C930076
:1003B0009F17080081308A00E130710703188A0A0C
:1003C00082004F349134F134543465344434303441
:1003D00054346534443430342B344B34373429347A
:1003E000493434342534453459346734453454342D
:1003F0006534443430342534453459346734453415
:1004000054346534443430342B344B345E346B34E0
:10041000473439343C34493444344034443442342D
:10042000F0344B3439343934FF3482308A001C3094
:10043000710703188A0A82004F349134F03427344C
:100440005A346A3435344534473448344A344C34A9
:1004500005342734593469343A344C34F134423455
:100460004234F0344C344C343A34E2347534E034B1
:100470008734583467344534E2347734E034883490
:100480005A3468344734E2347834E0348A344C34B3
:100490004A34483447343534E2347534E0348734F0
:1004A000583467344534E2347734E03488345A348D
:1004B00068344734473445344A34E2346A34E034EB
:1004C0006934E2346734E03469340A3427345A3406
:1004D0006A34043428345C346C3405342A345B3494
:1004E0006B344C3448344734453424342534073491
:1004F0002A34F13453346334F0344C3448344734C0
:1005000045342A3422340534FF3482308A008C305A
:10051000710703188A0A820017347934F0342934B9
:10052000673469346A346734253450346534473469
:10053000473447344834283449346F3465342A34D6
:1005400049346F3465342E344C344C344B344A3493
:1005500049344E34253464346E346C346A3429346E
:10056000673469346A346734253450346534473429
:10057000473447344834283449346F3465342A3496
:1005800049346F3465342E344C346F346A34493412
:1005900049346934673465346734573468344934CE
:1005A0006F3465342A3449346F3465342E344C3416
:1005B0006F346A3449344934693467346534673494
:1005C000273445344F34FF3482308A00EB307107D2
:1005D00003188A0A820017347934F03442344734DD
:1005E000E23447346734E0348B348B344934473455
:1005F000243442344534493447344B344E34273460
:100600004F344C345B3469344B344E34E234273449
:100610004734E0344F34423447344734653464342B
:10062000553467345934653447344E34E2344E34EB
:100630006E34E0346C346C345B34693447344F349A
:10064000FF3483308A002830710703188A0A820039
:1006500017347934F0346934693467345534653487
:1006600067346534523462346434653454346434E9
:1006700065346734553469346934673455346534C6
:1006800069346534523464346434643449346734CE
:10069000453464344234FF3483308A005330710768
:1006A00003188A0A820017347934F0344F344F34F7
:1006B0004F3444344C344C344B344B346C344C3421
:1006C000E23469345934E0346F34443444346834A7
:1006D000583429344F3444344C344C344B344B3438
:1006E0006C344C34E23469345934E0346F3444347B
:1006F00044346834583409346934E2345934293480
:10070000E0346E34E2345E342E34E034F134243498
:100710005434623464344434F0346E346C345934B8
:100720006C34E23459344934E0344F346C34E234BC
:1007300059345934E03464344434443468345834DB
:1007400039344F34FF3483308A00AA3071070318DC
:100750008A0A820017347934F03447342C34F13467
:1007600064346034243442342034F034493427343F
:1007700047342C34F1346434603424344234E23469
:100780003734E034273444345734643467346434C1
:10079000F0342C34473459346C346C346934273495
:1007A00047342C34F1346434603424344234E23439
:1007B000F0343C343C34E034FF3483308A00E4309D
:1007C000710703188A0A820017347934F0344F34E1
:1007D0004F344934E2342C34E0344E34F134543460
:1007E00065344434E2342234E034F0344B3457344A
:1007F00069344B34E2342C34E034493459346834AD
:1008000049342B344834243449342C344E34F134B4
:10081000543465344434F0342E344B345734693412
:100820004B345C346B34493458346634683429347E
:1008300049343934F1343734573466344434F0347D
:100840002E344B34573469344B342C3449345934B6
:10085000683449342B3448343434F1343734573421
:1008600066344434F0342E344B34573469344B34CA
:100870005C346B344934583466344834E2343934A7
:100880002934E0344F34FF3484308A004B30710710
:1008900003188A0A820017347934F0343734453427
:1008A000443442342434623464344534443442346D
:1008B0002434623464344534443442342034603463
:1008C0006034403442344434423444344534273470
:1008D0006F346734453444344234243464346534EA
:1008E000453444344234243462346434453444342A
:1008F000423420346034603440344234453422344D
:10090000FF3484308A008830710703188A0A820015
:1009100017347934F134403440344234F0345B34A9
:100920006C344E34F13444344434453454346234F9
:100930004034F0344E344C344B343C34F13447348E
:1009400047344734573465344434453445344534AA
:10095000553464344234443465346434623460342D
:100960005434653447346934653444344234303463
:10097000FF3484308A00C030710703188A0A82006D
:1009800017347934F03449344934493449344734DC
:1009900045344534443442344234453449344E3489
:1009A0004E344E344E344C344A344A34493447344D
:1009B000473449344A3449344A3449344D344A344A
:1009C000493449344734453445344434423444345A
:1009D000443444344434453444343234FF34843071
:1009E0008A00F630710703188A0A8200CA34673415
:1009F000F0344F344F344B342B344934293447349A
:100A0000573459344B344C344B34493447344934DB
:100A100057344F34473449342B344B344B344C34F3
:100A20004E34293449344934473449342B344B3417
:100A30004B344C344E3429344934293449342B3422
:100A4000493429344734573459344B344C344B34BB
:100A50004934473449343734FF3485308A003430E0
:100A6000710703188A0A820017347934F034453448
:100A7000473449344534453447344934453449349E
:100A80004A342C3449344A342C347C348E346C341B
:100A90006A34493445347C348E346C346A34493495
:100AA0004534453440342534453440342534FF340E
:100AB00085308A005F30710703188A0A8200CA34C1
:100AC0006734F034493449344A34F13440344034E2
:100AD000F0344A3449344734453445344734493492
:100AE000593467342734493449344A34F134403472
:100AF0004034F0344A34493447344534453447347B
:100B000049345734653425344734473449344534FF
:100B10004734E23469346A34E03449344534473484
:100B2000E23469346A34E034493447344534473474
:100B30002034493449344A34F13440344034F034B8
:100B40004A344934473445344534473449345734BA
:100B500065342534FF3485308A00B23071070318BC
:100B60008A0A82007434A134F034543468344B342B
:100B70006734643459346C34F1344434F0346E34B2
:100B80006C345B346C344E34F1344434F0344C34D3
:100B900049342934F1345534673449346734653481
:100BA000543465344434F0346E346C345B346C3417
:100BB0004E34F1344434F0344C3449342934FF3465
:100BC00085308A00E730710703188A0A82001734DB
:100BD0007934473449344B344734293449344B341D
:100BE0002C342C342B342B34473449344B34473495
:100BF000293449344B342C342E3407342E344E34BB
:100C00004C342B3449344B342C342E340934FF34D7
:100C100086308A000F30710703188A0A8200173461
:100C20007934703480344234403445342434703460
:100C300080344234403447342534703480344C346A
:100C400049344534443442347A348A34493445345E
:100C500047342534FF3486308A0032307107031858
:100C60008A0A82004F3491344034753485344534D7
:100C700047347934893459346934673469344A34AF
:100C80004434473445346F346C346C3469345E34E6
:100C90004C344C346A345A346A346A3467345C34C1
:100CA0006A346A346934493440347534853445349F
:100CB00047347934893459346934673469344A346F
:100CC000443447342534FF3486308A006B30710752
:100CD00003188A0A82004F349134273447344B3446
:100CE0004B3449344B344734273447344B344B343A
:100CF00049342B342B344B34493447344B344E3441
:100D00004B342E344E344B3447344B34293427344F
:100D100047344B344B34693467344B3447342B34C9
:100D20004B34693467344B3449342734FF348630CC
:100D30008A009E30710703188A0A82004F3491346A
:100D4000F034E234453449344C34F13435343734FA
:100D50004434423440345234643442343034F03415
:100D60004534473449343C343E344C3449344534BA
:100D7000373437344C3449344C34F134353432342C
:100D8000F0344C34493445343534373449344734FD
:100D900049343C343E3447344934473435343534AF
:100DA0003534FF3486308A00D930710703188A0A37
:100DB00082004F349134F134E23464346334643467
:100DC00063346434F0346B346E346C3449346F34CF
:100DD0006034643469344B346F34643468346B3455
:100DE0004C346F346434F1346434633464346334C5
:100DF0006434F0346B34F13462346034F0344934A8
:100E00006F346034643469344B346F3464346C341C
:100E10006B342934F13464346334643463346434BB
:100E2000F0346B346E346C3449346F346034643471
:100E300069344B346F34643468346B344C346F34FD
:100E40006434F13464346334643463346434F034CB
:100E50006B346E346C3449346F34603464346934C8
:100E60004B346F3464346C346B3449346F346B34CA
:100E70006C346E34F1345434F0346734F134653406
:100E800064345234F0346534F134643462345034B0
:100E9000F03464346E346C344B346F346434F13475
:100EA00064346F344F346F34633464346334643483
:100EB0006334643463346434633464346334643476
:100EC00063346434F0346B346E346C3449346F34CE
:100ED0006034643469344B346F34643468346B3454
:100EE0004C346F346434F1346434633464346334C4
:100EF0006434F0346B346E346C3449346F346034A1
:100F0000643469344B346F3464346C346B34293456
:100F1000FF3487308A009030710703188A0A8200F4
:100F20008D34DF347015C0340434F134E2340434C9
:100F30000434E0344434E2346934E0346534E23477
:100F400062346034F0346B34E0346C342B34693404
:100F50005734F134E2340734E03467346434F03425
:100F6000E2346A34E0346934E2346E34E0346D34AF
:100F7000F134E2346734E0346534E2340534E0348B
:100F800065346234F034E2346934E0346734E23496
:100F90006C34E0346B34F134E2346534E03464347E
:100FA000E23434346634E03467344034E23480343C
:100FB000623464346434E0346234E2346234E03401
:100FC0006034E234F0346B34E0346934E234893430
:100FD0006B346C34E0344C34E2346B34E0346934D8
:060FE0000734D034FF3499
:020000040001F9
:02000E00E439D3
:02001000FF1DD2
:00000001FF
