:020000040000FA
:02000000BE2818
:040002000034003492
:080008003B002D1C1A282D10ED
:10001000FD1F0F28043023020318152813289730DA
:100020002302031C1528FD09FD0A7D08A307AF174D
:1000300020009312701821283B003D1C2128BD018F
:1000400070142000131309008A018207E934EE348A
:100050007734E134DF34D434D534C8349F34BD34FC
:10006000FA34B234EA34A8346F349F34743496349A
:100070000B348E340F34863491347E3474347734B8
:10008000BB34703466346A3472346434CF345E34D2
:100090007D34593475345434B7344F343E344B3492
:1000A000053447340734433445343F34B7343B34A4
:1000B0005D343834353435343734323465342F34A4
:1000C000BC342C343A342A34DB3427349F3425347E
:1000D0008234233484342134A2341F34DC341D347C
:1000E0002F341C3499341A341B341934B334173474
:1000F0005E3416341C341534ED341334CF341234DA
:10010000C0341134C1341034D1340F348A01820721
:10011000992B142D672D532E202E752C082B5F2B19
:100120003D2CE92C9C2DAB2CE72DA02AC42DDD2ADB
:10013000002C452F8E2E412AD929F5280130FD00AB
:10014000220060309D003B00A101A201A701A8018F
:10015000AE149B30A500A6014D30A300A401AF173B
:100160002D102C14AB172B172D001414941491017F
:100170009201E030930021009316080021007030B6
:10018000990023008C012600FF308C0022000C1106
:100190000C1021008C0122008C109E203B000D30A1
:1001A00087009130860008308101860AFF3E031DDA
:1001B000D4289F170D308700B130860008308101A8
:1001C000860AFF3E031DDF28BF1720309E00C03087
:1001D0009B00BB001230BE00BD013C142100131770
:1001E0002000C0308B00831DF628F401F101F501D9
:1001F000F00174088620FB00F10A74088620FC00D8
:10020000F10A74088620F600FF3A031939297608A6
:10021000F039F03A03192529F03AE03A031929296F
:10022000E03AC03A03192D29C03AD03A03193329CC
:10023000D03A0F3076050F3A031D2229760E0F397A
:100240004C21002976085721002903307605F30058
:10025000002903307605F5000029F10AF10A740837
:100260008620F2000029701D00297208F10070112B
:100270000029F40A3D216300BE2820008B133B00B7
:10028000AB132B132C102D102D00931213132200DF
:100290008C120C120C1408006C213B00BD01C03004
:1002A000BB007010701C52293B00BB130800F80003
:1002B0000F39C021780E0F396C213B00C0309B00F4
:1002C0003B00BD01C030BB007010701C65293B00B5
:1002D0009B133B00BB130800F6003B007B08F900B2
:1002E0007C08FA000310760CF700770803197D29C3
:1002F0000310FA0CF90CF7037529761C88290310F2
:100300007A0CF700790CF9070318F70A7708FA074F
:100310007908B5007A08B600023075060319A629D7
:10032000013075060319A2290310FA0CF90C031009
:10033000FA0C790C3502F900031CFA0A7A08360225
:10034000FA00B8290310FA0CF90CB8290330F600AA
:1003500076080319B0290310FA0CF90CF603A82942
:1003600079083502F900031CFA0A7A083602FA0005
:100370007908B3007A08B400B901BA01BF170800C0
:10038000F60073080319C929F7000C30F607F70BBC
:10039000C6293B000310F60D760824209500760A46
:1003A000242096000310160C9400150C93009F1740
:1003B000080081308A00E030710703188A0A820041
:1003C0004F349134F03429345C346C343534473450
:1003D00049344A344C344E3437344F3429345B3446
:1003E0006B343C344E34F13444344434F0344E34C1
:1003F0004E343C34773489345A3469344734793450
:100400008A345C346A3449345A348C344E344C3433
:100410004A3449343734773489345A346934473468
:1004200079348A345C346A344934493447344C343E
:100430006C346B3469346A343C344F3429345C3462
:100440006C3435344F342A345E346E3437344F34A0
:100450002C345D346C344E344A34493447342534BA
:10046000273439344F342C34F13455346534F03476
:100470004E344A34493447342C34243435344F34E0
:10048000FF3482308A004830710703188A0A8200DC
:1004900017347934F0342934673469346A34673472
:1004A000253450346534473447344734483428348D
:1004B00049346F3465342A3449346F3465342E340A
:1004C0004C344C344B344A3449344E34253464343F
:1004D0006E346C346A342934673469346A3467346E
:1004E000253450346534473447344734483428344D
:1004F00049346F3465342A3449346F3465342E34CA
:100500004C346F346A34493449346934673465345F
:1005100067345734683449346F3465342A34493485
:100520006F3465342E344C346F346A344934493472
:100530006934673465346734273445344F34FF34C5
:1005400082308A00A730710703188A0A82001734A4
:100550007934F03442344734E23447346734E03499
:100560008B348B3449344734243442344534493451
:1005700047344B344E3427344F344C345B34693475
:100580004B344E34E23427344734E0344F34423471
:1005900047344734653464345534673459346534EA
:1005A00047344E34E2344E346E34E0346C346C34C0
:1005B0005B34693447344F34FF3482308A00E4308E
:1005C000710703188A0A820017347934F0346934C9
:1005D0006934673455346534673465345234623471
:1005E0006434653454346434653467345534693460
:1005F000693467345534653469346534523464344D
:100600006434643449346734453464344234FF34E8
:1006100083308A000F30710703188A0A820017346A
:100620007934F0344F344F344F3444344C344C34F8
:100630004B344B346C344C34E23469345934E03448
:100640006F34443444346834583429344F34443497
:100650004C344C344B344B346C344C34E2346934C9
:100660005934E0346F3444344434683458340934F1
:100670006934E23459342934E0346E34E2345E347F
:100680002E34E034F1342434543462346434443449
:10069000F0346E346C3459346C34E23459344934A7
:1006A000E0344F346C34E23459345934E034643437
:1006B000443444346834583439344F34FF3483304C
:1006C0008A006630710703188A0A82001734793469
:1006D000F03447342C34F1346434603424344234FC
:1006E0002034F0344934273447342C34F134643422
:1006F000603424344234E2343734E0342734443430
:100700005734643467346434F0342C344734593407
:100710006C346C346934273447342C34F134643409
:10072000603424344234E234F0343C343C34E03439
:10073000FF3483308A00A030710703188A0A8200D0
:1007400017347934F0344F344F344934E2342C3494
:10075000E0344E34F134543465344434E2342234D9
:10076000E034F0344B34573469344B34E2342C34B5
:10077000E03449345934683449342B34483424340F
:1007800049342C344E34F134543465344434F03428
:100790002E344B34573469344B345C346B34493425
:1007A000583466346834293449343934F1343734B0
:1007B000573466344434F0342E344B34573469346F
:1007C0004B342C3449345934683449342B3448344C
:1007D0003434F1343734573466344434F0342E34FE
:1007E0004B34573469344B345C346B3449345834AB
:1007F00066344834E23439342934E0344F34FF3439
:1008000084308A000730710703188A0A820017347F
:100810007934F03437344534443442342434623447
:1008200064344534443442342434623464344534CA
:1008300044344234203460346034403442344434EC
:1008400042344434453427346F34673445344434B7
:1008500042342434643465344534443442342434DA
:100860006234643445344434423420346034603477
:100870004034423445342234FF3484308A004430DA
:10088000710703188A0A820017347934F13440342E
:1008900040344234F0345B346C344E34F1344434FC
:1008A00044344534543462344034F0344E344C349F
:1008B0004B343C34F134473447344734573465348F
:1008C0004434453445344534553464344234443436
:1008D0006534643462346034543465344734693484
:1008E0006534443442343034FF3484308A007C3000
:1008F000710703188A0A820017347934F0344934B6
:100900004934493449344734453445344434423415
:100910004234453449344E344E344E344E344C34E3
:100920004A344A3449344734473449344A344934E0
:100930004A3449344D344A344934493447344534CF
:1009400045344434423444344434443444344534E7
:1009500044343234FF3484308A00B23071070318D3
:100960008A0A8200CA346734F0344F344F344B342F
:100970002B34493429344734573459344B344C34AC
:100980004B3449344734493457344F34473449346D
:100990002B344B344B344C344E34293449344934A1
:1009A000473449342B344B344B344C344E34293493
:1009B0004934293449342B344934293447345734A1
:1009C00059344B344C344B3449344734493437343C
:1009D000FF3484308A00F030710703188A0A8200DD
:1009E00017347934F0344534473449344534453488
:1009F00047344934453449344A342C3449344A3430
:100A00002C347C348E346C346A34493445347C3430
:100A10008E346C346A34493445344534403425349A
:100A2000453440342534FF3485308A001B3071074B
:100A300003188A0A8200CA346734F03449344934CE
:100A40004A34F13440344034F0344A344934473481
:100A500045344534473449345934673427344934AC
:100A600049344A34F13440344034F0344A3449345F
:100A70004734453445344734493457346534253494
:100A800047344734493445344734E23469346A34AE
:100A9000E034493445344734E23469346A34E0346C
:100AA00049344734453447342034493449344A348E
:100AB000F13440344034F0344A3449344734453416
:100AC000453447344934573465342534FF34853050
:100AD0008A006E30710703188A0A82007434A134C8
:100AE000F034543468344B346734643459346C34DF
:100AF000F1344434F0346E346C345B346C344E3442
:100B0000F1344434F0344C3449342934F13455341C
:100B10006734493467346534543465344434F034CC
:100B20006E346C345B346C344E34F1344434F03411
:100B30004C3449342934FF3485308A00A33071079E
:100B400003188A0A820017347934473449344B3405
:100B50004734293449344B342C342C342B342B3443
:100B6000473449344B344734293449344B342C34DA
:100B70002E3407342E344E344C342B3449344B3419
:100B80002C342E340934FF3485308A00CB30710781
:100B900003188A0A8200173479347034803442345E
:100BA0004034453424347034803442344034473443
:100BB0002534703480344C34493445344434423420
:100BC0007A348A344934453447342534FF34853007
:100BD0008A00EE30710703188A0A82004F3491347C
:100BE0004034753485344534473479348934593444
:100BF0006934673469344A344434473445346F3493
:100C00006C346C3469345E344C344C346A345A3449
:100C10006A346A3467345C346A346A346934493417
:100C20004034753485344534473479348934593403
:100C30006934673469344A34443447342534FF34E2
:100C400086308A002730710703188A0A82004F34E1
:100C50009134273447344B344B3449344B34473484
:100C6000273447344B344B3449342B342B344B34F6
:100C7000493447344B344E344B342E344E344B3499
:100C800047344B342934273447344B344B3469349C
:100C900067344B3447342B344B34693467344B342A
:100CA00049342734FF3486308A005A3071070318DC
:100CB0008A0A82004F349134F034E23445344934A6
:100CC0004C34F134353437344434423440345234C3
:100CD000643442343034F0344534473449343C349D
:100CE0003E344C3449344534373437344C34493449
:100CF0004C34F13435343234F0344C3449344534E6
:100D0000353437344934473449343C343E3447343D
:100D100049344734353435343534FF3486308A002D
:100D20009530710703188A0A82004F349134F134E8
:100D3000E23464346334643463346434F0346B34E4
:100D40006E346C3449346F346034643469344B34F9
:100D50006F34643468346B344C346F346434F1343D
:100D600064346334643463346434F0346B34F134A5
:100D700062346034F03449346F346034643469343C
:100D80004B346F3464346C346B342934F134643450
:100D90006334643463346434F0346B346E346C34F0
:100DA00049346F346034643469344B346F346434A0
:100DB00068346B344C346F346434F13464346334E9
:100DC000643463346434F0346B346E346C344934DA
:100DD0006F346034643469344B346F3464346C344D
:100DE0006B3449346F346B346C346E34F1345434B6
:100DF000F0346734F134653464345234F03465349B
:100E0000F134643462345034F03464346E346C340D
:100E10004B346F346434F13464346F344F346F3492
:100E20006334643463346434633464346334643406
:100E3000633464346334643463346434F0346B3462
:100E40006E346C3449346F346034643469344B34F8
:100E50006F34643468346B344C346F346434F1343C
:100E600064346334643463346434F0346B346E3427
:100E70006C3449346F346034643469344B346F34C7
:100E800064346C346B342934FF3487308A004C303E
:100E9000710703188A0A82008D34DF347015C0345C
:100EA0000434F134E23404340434E0344434E234BD
:100EB0006934E0346534E23462346034F0346B34E5
:100EC000E0346C342B3469345734F134E234073471
:100ED000E03467346434F034E2346A34E034693442
:100EE000E2346E34E0346D34F134E2346734E034AB
:100EF0006534E2340534E03465346234F034E2348D
:100F00006934E0346734E2346C34E0346B34F13407
:100F1000E2346534E0346434E23434346634E0344A
:100F200067344034E2348034623464346434E0340E
:100F30006234E2346234E0346034E234F0346B34EE
:100F4000E0346934E23489346B346C34E0344C344A
:0E0F5000E2346B34E03469340734D034FF34BB
:020000040001F9
:02000E00E439D3
:02001000FF1DD2
:00000001FF
